{
  "_format": "hh-sol-artifact-1",
  "contractName": "Eventnft",
  "sourceName": "contracts/GatedEvent.sol",
  "abi": [
    {
      "inputs": [
        {
          "internalType": "address",
          "name": "_tokenAddress",
          "type": "address"
        }
      ],
      "stateMutability": "nonpayable",
      "type": "constructor"
    },
    {
      "inputs": [
        {
          "internalType": "string",
          "name": "_name",
          "type": "string"
        },
        {
          "internalType": "string",
          "name": "_description",
          "type": "string"
        },
        {
          "internalType": "string",
          "name": "_eventDate",
          "type": "string"
        }
      ],
      "name": "createEvent",
      "outputs": [],
      "stateMutability": "nonpayable",
      "type": "function"
    },
    {
      "inputs": [
        {
          "internalType": "uint256",
          "name": "_eventID",
          "type": "uint256"
        }
      ],
      "name": "getAregisteredUsers",
      "outputs": [
        {
          "internalType": "address[]",
          "name": "",
          "type": "address[]"
        }
      ],
      "stateMutability": "view",
      "type": "function"
    },
    {
      "inputs": [
        {
          "internalType": "uint256",
          "name": "_eventID",
          "type": "uint256"
        }
      ],
      "name": "registerAttendees",
      "outputs": [],
      "stateMutability": "nonpayable",
      "type": "function"
    }
  ],
  "bytecode": "0x608060405234801561001057600080fd5b5060405162001060380380620010608339818101604052810190610034919061011e565b336000806101000a81548173ffffffffffffffffffffffffffffffffffffffff021916908373ffffffffffffffffffffffffffffffffffffffff16021790555080600260006101000a81548173ffffffffffffffffffffffffffffffffffffffff021916908373ffffffffffffffffffffffffffffffffffffffff1602179055505061014b565b600080fd5b600073ffffffffffffffffffffffffffffffffffffffff82169050919050565b60006100eb826100c0565b9050919050565b6100fb816100e0565b811461010657600080fd5b50565b600081519050610118816100f2565b92915050565b600060208284031215610134576101336100bb565b5b600061014284828501610109565b91505092915050565b610f05806200015b6000396000f3fe608060405234801561001057600080fd5b50600436106100415760003560e01c8063280ae8461461004657806341a950b6146100765780639b503fd814610092575b600080fd5b610060600480360381019061005b919061062a565b6100ae565b60405161006d9190610747565b60405180910390f35b610090600480360381019061008b919061062a565b6101a3565b005b6100ac60048036038101906100a791906108af565b61048a565b005b60606000821180156100c257506001548211155b610101576040517f08c379a00000000000000000000000000000000000000000000000000000000081526004016100f8906109b3565b60405180910390fd5b6004600083815260200190815260200160002060050180548060200260200160405190810160405280929190818152602001828054801561019757602002820191906000526020600020905b8160009054906101000a900473ffffffffffffffffffffffffffffffffffffffff1673ffffffffffffffffffffffffffffffffffffffff168152602001906001019080831161014d575b50505050509050919050565b6000600260009054906101000a900473ffffffffffffffffffffffffffffffffffffffff1673ffffffffffffffffffffffffffffffffffffffff166370a08231336040518263ffffffff1660e01b815260040161020091906109e2565b602060405180830381865afa15801561021d573d6000803e3d6000fd5b505050506040513d601f19601f820116820180604052508101906102419190610a12565b11610281576040517f08c379a000000000000000000000000000000000000000000000000000000000815260040161027890610a8b565b60405180910390fd5b600081036102c4576040517f08c379a00000000000000000000000000000000000000000000000000000000081526004016102bb90610af7565b60405180910390fd5b600154811115610309576040517f08c379a000000000000000000000000000000000000000000000000000000000815260040161030090610af7565b60405180910390fd5b600560003373ffffffffffffffffffffffffffffffffffffffff1673ffffffffffffffffffffffffffffffffffffffff168152602001908152602001600020600082815260200190815260200160002060009054906101000a900460ff16156103a7576040517f08c379a000000000000000000000000000000000000000000000000000000000815260040161039e90610b63565b60405180910390fd5b60046000828152602001908152602001600020600501339080600181540180825580915050600190039060005260206000200160009091909190916101000a81548173ffffffffffffffffffffffffffffffffffffffff021916908373ffffffffffffffffffffffffffffffffffffffff1602179055506001600560003373ffffffffffffffffffffffffffffffffffffffff1673ffffffffffffffffffffffffffffffffffffffff168152602001908152602001600020600083815260200190815260200160002060006101000a81548160ff02191690831515021790555050565b60006001805461049a9190610bb2565b90506000600460008381526020019081526020016000209050818160000181905550848160010190816104cd9190610dfd565b50838160020190816104df9190610dfd565b50828160030190816104f19190610dfd565b5080600501339080600181540180825580915050600190039060005260206000200160009091909190916101000a81548173ffffffffffffffffffffffffffffffffffffffff021916908373ffffffffffffffffffffffffffffffffffffffff1602179055506001600560003373ffffffffffffffffffffffffffffffffffffffff1673ffffffffffffffffffffffffffffffffffffffff168152602001908152602001600020600084815260200190815260200160002060006101000a81548160ff02191690831515021790555060018060008282546105d29190610bb2565b925050819055505050505050565b6000604051905090565b600080fd5b600080fd5b6000819050919050565b610607816105f4565b811461061257600080fd5b50565b600081359050610624816105fe565b92915050565b6000602082840312156106405761063f6105ea565b5b600061064e84828501610615565b91505092915050565b600081519050919050565b600082825260208201905092915050565b6000819050602082019050919050565b600073ffffffffffffffffffffffffffffffffffffffff82169050919050565b60006106ae82610683565b9050919050565b6106be816106a3565b82525050565b60006106d083836106b5565b60208301905092915050565b6000602082019050919050565b60006106f482610657565b6106fe8185610662565b935061070983610673565b8060005b8381101561073a57815161072188826106c4565b975061072c836106dc565b92505060018101905061070d565b5085935050505092915050565b6000602082019050818103600083015261076181846106e9565b905092915050565b600080fd5b600080fd5b6000601f19601f8301169050919050565b7f4e487b7100000000000000000000000000000000000000000000000000000000600052604160045260246000fd5b6107bc82610773565b810181811067ffffffffffffffff821117156107db576107da610784565b5b80604052505050565b60006107ee6105e0565b90506107fa82826107b3565b919050565b600067ffffffffffffffff82111561081a57610819610784565b5b61082382610773565b9050602081019050919050565b82818337600083830152505050565b600061085261084d846107ff565b6107e4565b90508281526020810184848401111561086e5761086d61076e565b5b610879848285610830565b509392505050565b600082601f83011261089657610895610769565b5b81356108a684826020860161083f565b91505092915050565b6000806000606084860312156108c8576108c76105ea565b5b600084013567ffffffffffffffff8111156108e6576108e56105ef565b5b6108f286828701610881565b935050602084013567ffffffffffffffff811115610913576109126105ef565b5b61091f86828701610881565b925050604084013567ffffffffffffffff8111156109405761093f6105ef565b5b61094c86828701610881565b9150509250925092565b600082825260208201905092915050565b7f696e76616c696400000000000000000000000000000000000000000000000000600082015250565b600061099d600783610956565b91506109a882610967565b602082019050919050565b600060208201905081810360008301526109cc81610990565b9050919050565b6109dc816106a3565b82525050565b60006020820190506109f760008301846109d3565b92915050565b600081519050610a0c816105fe565b92915050565b600060208284031215610a2857610a276105ea565b5b6000610a36848285016109fd565b91505092915050565b7f6e6f7420616e206e667420686f6c646572000000000000000000000000000000600082015250565b6000610a75601183610956565b9150610a8082610a3f565b602082019050919050565b60006020820190508181036000830152610aa481610a68565b9050919050565b7f6e6f7420696e206578697374656e636500000000000000000000000000000000600082015250565b6000610ae1601083610956565b9150610aec82610aab565b602082019050919050565b60006020820190508181036000830152610b1081610ad4565b9050919050565b7f416c726561647920726567697374657265640000000000000000000000000000600082015250565b6000610b4d601283610956565b9150610b5882610b17565b602082019050919050565b60006020820190508181036000830152610b7c81610b40565b9050919050565b7f4e487b7100000000000000000000000000000000000000000000000000000000600052601160045260246000fd5b6000610bbd826105f4565b9150610bc8836105f4565b9250828201905080821115610be057610bdf610b83565b5b92915050565b600081519050919050565b7f4e487b7100000000000000000000000000000000000000000000000000000000600052602260045260246000fd5b60006002820490506001821680610c3857607f821691505b602082108103610c4b57610c4a610bf1565b5b50919050565b60008190508160005260206000209050919050565b60006020601f8301049050919050565b600082821b905092915050565b600060088302610cb37fffffffffffffffffffffffffffffffffffffffffffffffffffffffffffffffff82610c76565b610cbd8683610c76565b95508019841693508086168417925050509392505050565b6000819050919050565b6000610cfa610cf5610cf0846105f4565b610cd5565b6105f4565b9050919050565b6000819050919050565b610d1483610cdf565b610d28610d2082610d01565b848454610c83565b825550505050565b600090565b610d3d610d30565b610d48818484610d0b565b505050565b5b81811015610d6c57610d61600082610d35565b600181019050610d4e565b5050565b601f821115610db157610d8281610c51565b610d8b84610c66565b81016020851015610d9a578190505b610dae610da685610c66565b830182610d4d565b50505b505050565b600082821c905092915050565b6000610dd460001984600802610db6565b1980831691505092915050565b6000610ded8383610dc3565b9150826002028217905092915050565b610e0682610be6565b67ffffffffffffffff811115610e1f57610e1e610784565b5b610e298254610c20565b610e34828285610d70565b600060209050601f831160018114610e675760008415610e55578287015190505b610e5f8582610de1565b865550610ec7565b601f198416610e7586610c51565b60005b82811015610e9d57848901518255600182019150602085019450602081019050610e78565b86831015610eba5784890151610eb6601f891682610dc3565b8355505b6001600288020188555050505b50505050505056fea26469706673582212206812b65b78fb7c7edb36f89e81ad3c9817983dcd4f702c632413f2b9ddef482264736f6c63430008180033",
  "linkReferences": {},
  "deployedLinkReferences": {}
}